:020000040000FA
:100000000C9480000C94A8000C94A8000C94A800F8
:100010000C94A8000C94A8000C94A8000C94A800C0
:100020000C94A8000C94A8000C94A8000C94A800B0
:100030000C94A8000C94A8000C94A8000C94A800A0
:100040000C9436030C94A8000C94A8000C94A800FF
:100050000C94A8000C94A8000C94A8000C94A80080
:100060000C94A8000C94A8004E414E494E49545996
:10007000494E46CDCCCC3D0AD7233C17B7D1387773
:10008000CC2B329595E6241FB14F0A000020410089
:1000900000C84200401C4620BCBE4CCA1B0E5AAED3
:1000A000C59D7400000000240027002A0000000005
:1000B00000250028002B0000000000230026002956
:1000C0000004040404040404040202020202020301
:1000D000030303030301020408102040800102040B
:1000E000081020010204081020000000080002018E
:1000F0000000030407000000000000000000870566
:1001000011241FBECFEFD8E0DEBFCDBF21E0A0E4B9
:10011000B1E001C01D92A538B207E1F711E0A0E0FF
:10012000B1E0ECECF3E102C005900D92A034B10710
:10013000D9F710E0C0E8D0E004C02197FE010E948A
:10014000CC09CF37D107C9F70E9480030C94E4098A
:100150000C940000833081F028F4813099F08230D3
:10016000A9F008958730A9F08830C9F08430B1F43F
:10017000809180008F7D03C0809180008F77809375
:100180008000089584B58F7784BD089584B58F7DF0
:10019000FBCF8091B0008F778093B000089580915D
:1001A000B0008F7DF9CFCF93DF93282F30E0F90196
:1001B000E751FF4F8491F901EB52FF4FD491F901C0
:1001C000EF53FF4FC491CC23A1F081110E94AA00EC
:1001D000EC2FF0E0EE0FFF1FE954FF4FA591B49113
:1001E000EC91ED2381E090E009F480E0DF91CF9184
:1001F000089580E090E0FACF1F93CF93DF93282FEC
:1002000030E0F901E751FF4F8491F901EB52FF4FC4
:10021000D491F901EF53FF4FC491CC23A9F0162FCD
:1002200081110E94AA00EC2FF0E0EE0FFF1FE355B2
:10023000FF4FA591B4918FB7F894EC91111108C0BC
:10024000D095DE23DC938FBFDF91CF911F9108956E
:10025000DE2BF8CFCF93DF9390E0FC01EB52FF4F02
:1002600024918F539F4FFC0184918823D1F090E01B
:10027000880F991FFC01ED55FF4FA591B491FC012A
:10028000E355FF4FC591D491623071F49FB7F89454
:100290003C91822F809583238C93E8812E2B288399
:1002A0009FBFDF91CF9108958FB7F894EC912E2BDB
:1002B0002C938FBFF6CFAF92BF92CF92DF92EF9287
:1002C000FF920F931F93CF93DF936C017B018B0100
:1002D000040F151FEB015E01AE18BF08C017D10750
:1002E00059F06991D601ED91FC910190F081E02DDA
:1002F000C6010995892B79F7C501DF91CF911F912F
:100300000F91FF90EF90DF90CF90BF90AF90089546
:10031000089590E080E00895FC0101900020E9F745
:100320003197AF01481B590BBC018BE691E00C944F
:100330005B018F929F92AF92BF920F931F93CF93C7
:10034000DF93CDB7DEB7A1970FB6F894DEBF0FBE2F
:10035000CDBF19A2423008F44AE08E010F5D1F4F55
:10036000842E912CB12CA12CA50194010E94AA09E4
:10037000E62FB901CA01EA30F4F4E05DD801EE934A
:100380008D01232B242B252B79F790E080E010970B
:1003900019F0CD010E948C01A1960FB6F894DEBF32
:1003A0000FBECDBFDF91CF911F910F91BF90AF9046
:1003B0009F908F900895E95CE1CFCF93DF93EC019C
:1003C00060E08E810E94FC0061E08E810E94FC0052
:1003D00060E08E810E94FC008BE891E00197F1F7CC
:1003E000DF91CF910895CF92DF92EF92FF920F931A
:1003F0001F93CF93DF936C017C0187E0E80EF11C23
:10040000D0E0C0E0062F10E0B8010C2E02C07595B8
:1004100067950A94E2F76170F70181917F010E946C
:10042000FC002196C430D10579F7C601DF91CF9148
:100430001F910F91FF90EF90DF90CF900C94DD0112
:10044000CF92DF92EF92FF920F931F93CF93DF93A0
:10045000EC01F62E642F8C810E94FC008D818F3F71
:1004600019F060E00E94FC000F2D10E08F8584FFE2
:1004700025C06E0187E0C80ED11CF12CE12CB8011B
:100480000E2C02C0759567950A94E2F76170F6012B
:1004900081916F010E94FC00FFEFEF1AFF0A88E0D4
:1004A000E816F10461F7CE01DF91CF911F910F9112
:1004B000FF90EF90DF90CF900C94DD01B80184E0C5
:1004C000759567958A95E1F7CE010E94F3016F2D2E
:1004D000CE01DF91CF911F910F91FF90EF90DF90B0
:1004E000CF900C94F30140E0682F8BE691E00C94E0
:1004F000200281E00E9473028BE39FE10197F1F7F4
:100500000895CF93DF93823029F490917A01986017
:1005100090937A0180937E0110927F0180E4809312
:10052000800180E18093810180E58093820161E018
:1005300080916F010E942A01809170018F3F19F014
:1005400061E00E942A0161E0809171010E942A010C
:10055000CBE6D1E09E012B56314080917A0184FD9B
:100560000BC084E090E021962817390744F461E03D
:100570008E810E942A01EECF88E090E0F4CF8BE3D9
:100580009DE00197F1F760E080916F010E94FC000F
:1005900060E0809171010E94FC00809170018F3FAA
:1005A00019F060E00E94FC0080917A0184FD34C063
:1005B00063E08BE691E00E94F301CBE4D6E4CE0148
:1005C0000197F1F763E08BE691E00E94F301219738
:1005D000F1F763E08BE691E00E94F30183E592E09E
:1005E0000197F1F762E08BE691E00E94F3018091C0
:1005F0007A0180620E94730284E080937B018CE028
:100600000E9473020E94790282E080937C0186E05E
:10061000DF91CF910C94730280620E9473028BE48D
:1006200096E40197F1F780917A0180620E9473024B
:1006300083E592E00197F1F780917A0180620E9450
:100640007302D5CF90917E01891710F08FEF890F3B
:10065000E82FF0E0E559FE4F848980680C9473021E
:1006600041E00E94200281E090E008951F920F92E5
:100670000FB60F9211242F933F938F939F93AF93B5
:10068000BF938091670190916801A0916901B09139
:100690006A013091660123E0230F2D3758F501964A
:1006A000A11DB11D2093660180936701909368019D
:1006B000A0936901B0936A018091620190916301F6
:1006C000A0916401B09165010196A11DB11D8093B7
:1006D000620190936301A0936401B0936501BF919F
:1006E000AF919F918F913F912F910F900FBE0F90DF
:1006F0001F90189526E8230F0296A11DB11DD2CF99
:10070000CF93DF931F92CDB7DEB7789484B5826024
:1007100084BD84B5816084BD85B5826085BD85B5A5
:10072000816085BD80916E00816080936E00109223
:10073000810080918100826080938100809181009E
:10074000816080938100809180008160809380002F
:100750008091B10084608093B1008091B00081608D
:100760008093B00080917A00846080937A008091B9
:100770007A00826080937A0080917A008160809311
:100780007A0080917A00806880937A001092C1008C
:1007900061E080E00E942A0161E081E00E942A017C
:1007A00061E082E00E942A0161E083E00E942A0168
:1007B00061E080E00E94FC0061E081E00E94FC00BA
:1007C00061E082E00E94FC0061E083E00E94FC00A6
:1007D00062E084E00E942A0162E085E00E942A0132
:1007E00062E086E00E942A0162E087E00E942A011E
:1007F00082E00E9481028CE191E00E948C0120E065
:10080000A22E20E0B22EF12CE12CDE2C60E08E2D09
:100810000E94FC0010E000E094E0C92EC00E8C2D78
:100820000E94D30030E020E0892B31F48C2D0E940F
:10083000D30021E030E0F8CF21303105B1F461E0A0
:100840008D2D0E94FC00F701EE0FFF1FEE0FFF1F22
:10085000E45FFE4FE00FF11F1081111118C0A114C9
:10086000B10489F20E940000CECF0F5F1F4F043009
:10087000110591F661E08D2D0E94FC008FEFE81AC2
:10088000F80A84E0E816F10409F0BFCFE8CF812F21
:10089000012E000C990BC0970A9728F519838091B7
:1008A0004001811111C00E947902109352011092EF
:1008B000530180E00E94220382E591E00E948C01B6
:1008C00081E080934001CBCFBE016F5F7F4F82E517
:1008D00091E00E94D20980E00E94220382E591E02B
:1008E0000E948C01BCCF1D3309F0ECC08091400107
:1008F000882309F4B4CF80915201882309F4AFCF43
:1009000080914101882309F4AACF82E591E00E94F9
:10091000A5052B013C0182E491E00E94A5052091F0
:1009200041012B3281F034F42A3289F1C12CD12CCF
:10093000760111C02D3231F12F32C1F7A30192019E
:100940000E94FF0806C09B01AC01C301B2010E94D6
:1009500093086B017C010E94790280E00E942203CF
:100960008BE291E00E948C0181E00E942203A701AA
:100970009601C701B6010E94A509882379F083E397
:1009800091E0AECFA30192010E949208E2CF9B01B9
:10099000AC01C301B2010E948007DBCF2601370101
:1009A000E89477F82FEF3FEF4FE75FE7C301B2011D
:1009B0000E94A50981110DC02FEF3FEF4FE75FE7C0
:1009C000C301B2010E941A0718161CF487E391E0D4
:1009D00087CF2FEF3FEF4FE75FE4C701B6010E94DB
:1009E000A00918161CF48BE391E07ACF2FEF3FEFAC
:1009F0004FE75FECC701B6010E941A0787FDF3CFEE
:100A000020E030E0A901C701B6010E941A0787FF64
:100A10000AC041E06DE28BE691E00E942002F7FA05
:100A2000F094F7F8F0942AE037ED43EA5BE3C7016E
:100A3000B6010E9493082B013C010E9471096B01D1
:100A40007C010E941F079B01AC01C301B2010E94FF
:100A500092082B013C014AE0C701B6010E949901AE
:100A600041E06EE28BE691E00E94200220E030E05F
:100A700040E251E4C301B2010E9480072B013C0116
:100A80000E9471096B01F12CE12C4AE0C701B6010B
:100A90000E949901C701B6010E941F079B01AC018A
:100AA000C301B2010E94920820E030E040E251E42C
:100AB0000E9480070E94710990E080E04AE00E9455
:100AC0009901CDCE133469F40E947902109252013B
:100AD0001092420110924101109240018CE191E08C
:100AE000FFCE109341011092400162E571E082E473
:100AF00091E00E94DD091092520181E00E942203E0
:100B000041E0612F8BE691E00E942002A8CEEBE647
:100B1000F1E01382128284E091E09183808388E087
:100B200084838FEF858389E086838AE087838BE0E7
:100B300080878CE081878DE08287138614861586F6
:100B40001686178681E00C948102662777270C941D
:100B5000A905B0E0A0E0EFEAF5E00C9452085C01D2
:100B60007B016115710519F0DB018D939C93850163
:100B70000F5F1F4FF501D0818D2F90E00E94F90685
:100B80006C01892BB9F5DD32B9F50F5F1F4FD50127
:100B90001196DC91C1E05801F1E0AF1AB10843E0D1
:100BA00050E060E770E0C5010E940207892B69F5FB
:100BB000680182E0C80ED11C45E050E06BE670E0B1
:100BC000C6010E940207892B21F4680197E0C90E33
:100BD000D11CE114F10419F0D701CD92DC9260E050
:100BE00070E080E89FEFC111FFC060E070E080E836
:100BF0009FE7FAC05801BBCFDB3229F485010E5FB5
:100C00001F4FF501D181C0E0C6CF43E050E068E658
:100C100070E0C5010E940207892BE9F0F80110E09D
:100C200000E020E030E0A9015F01B0ED8B2E8D0ED9
:100C300089E08815C8F19C2E689491F88C2F8870F3
:100C4000C2FF16C0811102C00F5F1F4F3196D50140
:100C5000DC91C92DE9CFE114F10429F00E5F1F4F9B
:100C6000F7011183008360E070E080EC9FE7BCC077
:100C7000882311F001501109A5E0B0E00E9441085D
:100C80009B01AC01220F331F441F551F280D311D3E
:100C9000411D511D283999E93907490799E159073B
:100CA000A8F2C6609C2ED2CFAEEF8A1206C0C3FD5A
:100CB0003CC09C2E689493F8C9CFDF7DD534A9F54C
:100CC00080818D3239F4C061DF011296818162E04A
:100CD00070E006C0DF018B32C1F3119661E070E075
:100CE00080535D01A61AB70A8A30F8F4E0E8CE1600
:100CF000ECE0DE065CF4B601660F771F660F771F27
:100D0000C60ED71ECC0CDD1CC80ED11C5D01FFEF3A
:100D1000AF1ABF0A8C9180538A30A8F1C4FF03C078
:100D2000D194C194D1080C0D1D1DC1FF09C0E1145F
:100D3000F10431F081E0A81AB108D701AD92BC925C
:100D4000CA01B9010E941F07C370C33009F490584B
:100D50004B015C0120E030E0A9010E941A078823C2
:100D600009F440C0CFE9D0E017FF05C01195019507
:100D70001109C7E8D0E06E01B8E1CB1AD10880E2D2
:100D8000E82EF12C0FC0D501B1CFFE012591359190
:100D9000459154910E191F09C501B4010E948007A5
:100DA0004B015C01D501C4010E151F0574F7249792
:100DB000F594E794CC16DD06A9F78A2F880F8B2FC0
:100DC000881F8F3F49F020E030E0A901C501B40140
:100DD0000E941A07811106C082E290E0909384017C
:100DE00080938301C501B401CDB7DEB7ECE00C946C
:100DF0006E0891110C94ED07803219F089508550DE
:100E0000C8F70895FB01DC014150504088F08D91F6
:100E100081341CF08B350CF4805E659161341CF0DC
:100E20006B350CF4605E861B611171F3990B0895AC
:100E3000881BFCCF0E945C0708F481E00895E894C9
:100E400009C097FB3EF490958095709561957F4F12
:100E50008F4F9F4F9923A9F0F92F96E9BB279395C0
:100E6000F695879577956795B795F111F8CFFAF4D0
:100E7000BB0F11F460FF1BC06F5F7F4F8F4F9F4F01
:100E800016C0882311F096E911C0772321F09EE85F
:100E9000872F762F05C0662371F096E8862F70E0C5
:100EA00060E02AF09A95660F771F881FDAF7880F9F
:100EB0009695879597F90895990F0008550FAA0BF5
:100EC000E0E8FEEF16161706E807F907C0F012165D
:100ED0001306E407F50798F0621B730B840B950B60
:100EE00039F40A2661F0232B242B252B21F40895B5
:100EF0000A2609F4A140A6958FEF811D811D089552
:100F00000E9493070C9407080E94F90738F00E948A
:100F1000000820F0952311F00C94F0070C94F607CC
:100F200011240C943B080E94180870F3959FC1F39C
:100F3000950F50E0551F629FF001729FBB27F00D87
:100F4000B11D639FAA27F00DB11DAA1F649F6627DC
:100F5000B00DA11D661F829F2227B00DA11D621F2B
:100F6000739FB00DA11D621F839FA00D611D221FE5
:100F7000749F3327A00D611D231F849F600D211DC9
:100F8000822F762F6A2F11249F5750409AF0F1F04C
:100F900088234AF0EE0FFF1FBB1F661F771F881FB5
:100FA00091505040A9F79E3F510580F00C94F007F6
:100FB0000C943B085F3FE4F3983ED4F38695779515
:100FC0006795B795F795E7959F5FC1F7FE2B880F5B
:100FD000911D9695879597F90895992788270895E3
:100FE00097F99F6780E870E060E008959FEF80ECDC
:100FF000089500240A94161617061806090608957F
:1010000000240A9412161306140605060895092EE4
:101010000394000C11F4882352F0BB0F40F4BF2B53
:1010200011F460FF04C06F5F7F4F8F4F9F4F089593
:1010300057FD9058440F551F59F05F3F71F0479589
:10104000880F97FB991F61F09F3F79F0879508956E
:10105000121613061406551FF2CF4695F1DF08C08D
:10106000161617061806991FF1CF869571056105AA
:1010700008940895E894BB2766277727CB0197F952
:1010800008950E948308A59F900DB49F900DA49F82
:10109000800D911D112408952F923F924F925F92DF
:1010A0006F927F928F929F92AF92BF92CF92DF9278
:1010B000EF92FF920F931F93CF93DF93CDB7DEB7DD
:1010C000CA1BDB0B0FB6F894DEBF0FBECDBF099471
:1010D0002A88398848885F846E847D848C849B84C8
:1010E000AA84B984C884DF80EE80FD800C811B81D6
:1010F000AA81B981CE0FD11D0FB6F894DEBF0FBE05
:10110000CDBFED010895A29FB001B39FC001A39F81
:10111000700D811D1124911DB29F700D811D112430
:10112000911D08955058BB27AA270E94AA080C9425
:1011300007080E94F90738F00E94000820F039F4EF
:101140009F3F19F426F40C94F6070EF4E095E7FBA4
:101150000C94F007E92F0E94180858F3BA17620799
:1011600073078407950720F079F4A6F50C943A08E4
:101170000EF4E0950B2EBA2FA02D0B01B9019001B2
:101180000C01CA01A0011124FF27591B99F0593FF6
:1011900050F4503E68F11A16F040A22F232F342F3E
:1011A0004427585FF3CF469537952795A795F0408C
:1011B0005395C9F77EF41F16BA0B620B730B840BA1
:1011C000BAF09150A1F0FF0FBB1F661F771F881F59
:1011D000C2F70EC0BA0F621F731F841F48F48795B1
:1011E00077956795B795F7959E3F08F0B0CF9395A3
:1011F000880F08F09927EE0F9795879508950E941C
:1012000013090C9407080E94000858F00E94F9077F
:1012100040F029F45F3F29F00C94F00751110C9431
:101220003B080C94F6070E94180868F39923B1F361
:10123000552391F3951B550BBB27AA2762177307FC
:10124000840738F09F5F5F4F220F331F441FAA1F90
:10125000A9F335D00E2E3AF0E0E832D0915050404C
:10126000E695001CCAF72BD0FE2F29D0660F771FFA
:10127000881FBB1F261737074807AB07B0E809F0E0
:10128000BB0B802DBF01FF2793585F4F3AF09E3F65
:10129000510578F00C94F0070C943B085F3FE4F3A1
:1012A000983ED4F3869577956795B795F7959F5FA8
:1012B000C9F7880F911D9695879597F90895E1E0F4
:1012C000660F771F881FBB1F621773078407BA0753
:1012D00020F0621B730B840BBA0BEE1F88F7E095AE
:1012E00008950E94200888F09F5798F0B92F9927F9
:1012F000B751B0F0E1F0660F771F881F991F1AF001
:10130000BA95C9F714C0B13091F00E943A08B1E023
:1013100008950C943A08672F782F8827B85F39F022
:10132000B93FCCF3869577956795B395D9F73EF499
:1013300090958095709561957F4F8F4F9F4F089541
:101340000E945C0708F48FEF08950E945C07880BE9
:10135000990B0895A1E21A2EAA1BBB1BFD010DC01B
:10136000AA1FBB1FEE1FFF1FA217B307E407F50755
:1013700020F0A21BB30BE40BF50B661F771F881F31
:10138000991F1A9469F760957095809590959B01C7
:10139000AC01BD01CF010895EE0FFF1F0590F49140
:1013A000E02D0994FB01DC010D900020E9F7119775
:1013B00001900D920020E1F70895FB01DC010190FE
:1013C0000D920020E1F70895F894FFCF000000008F
:1013D00030035B01890188013738392F3435362ACB
:1013E0003132332D43303D2B20204E6162696C2019
:1013F00053686572696600726573756C743A006E45
:0C140000616E00696E66006F7666000089
:107E0000112484B714BE81FFF0D085E080938100F7
:107E100082E08093C00088E18093C10086E0809377
:107E2000C20080E18093C4008EE0C9D0259A86E02C
:107E300020E33CEF91E0309385002093840096BBD3
:107E4000B09BFECF1D9AA8958150A9F7CC24DD24C4
:107E500088248394B5E0AB2EA1E19A2EF3E0BF2EE7
:107E6000A2D0813461F49FD0082FAFD0023811F036
:107E7000013811F484E001C083E08DD089C08234E0
:107E800011F484E103C0853419F485E0A6D080C0E4
:107E9000853579F488D0E82EFF2485D0082F10E0AE
:107EA000102F00270E291F29000F111F8ED06801E7
:107EB0006FC0863521F484E090D080E0DECF843638
:107EC00009F040C070D06FD0082F6DD080E0C81688
:107ED00080E7D80618F4F601B7BEE895C0E0D1E017
:107EE00062D089930C17E1F7F0E0CF16F0E7DF06D8
:107EF00018F0F601B7BEE89568D007B600FCFDCFD4
:107F0000A601A0E0B1E02C9130E011968C91119780
:107F100090E0982F8827822B932B1296FA010C0160
:107F200087BEE89511244E5F5F4FF1E0A038BF0790
:107F300051F7F601A7BEE89507B600FCFDCF97BE46
:107F4000E89526C08437B1F42ED02DD0F82E2BD052
:107F50003CD0F601EF2C8F010F5F1F4F84911BD097
:107F6000EA94F801C1F70894C11CD11CFA94CF0C13
:107F7000D11C0EC0853739F428D08EE10CD085E9AC
:107F80000AD08FE07ACF813511F488E018D01DD067
:107F900080E101D065CF982F8091C00085FFFCCF94
:107FA0009093C60008958091C00087FFFCCF809118
:107FB000C00084FD01C0A8958091C6000895E0E648
:107FC000F0E098E1908380830895EDDF803219F02E
:107FD00088E0F5DFFFCF84E1DECF1F93182FE3DFCA
:107FE0001150E9F7F2DF1F91089580E0E8DFEE27F6
:047FF000FF270994CA
:027FFE00040479
:00000001FF
